S00C0000545030312E7372656313
S11300000C9434000C943E000C943E000C943E007E
S11300100C943E000C943E000C943E000C943E0064
S11300200C943E000C943E000C943E000C943E0054
S11300300C943E000C943E000C943E000C943E0044
S11300400C943E000C943E000C943E000C943E0034
S11300500C943E000C943E000C943E000C943E0024
S11300600C943E000C943E0011241FBECFEFD8E048
S1130070DEBFCDBF0E9444000C945B000C940000D2
S1130080860F420F841B0895CF93DF9300D000D0D6
S11300901F92CDB7DEB787E389838DE28A8388E335
S11300A08B838BE28C832C814B816A8189810E94B2
S10D00B040008D83F0CFF894FFCFD9
S9030000FC
